:020000040800F2
:10000000780600208901000891010008930100088A
:100010009501000897010008990100080000000000
:100020000000000000000000000000009B0100082C
:100030009D010008000000009F010008A1010008C8
:10004000A3010008A3010008A3010008A301000800
:10005000A3010008A3010008A3010008A3010008F0
:10006000A3010008A3010008A3010008A3010008E0
:10007000A3010008A3010008A3010008A3010008D0
:10008000A3010008A3010008A3010008A3010008C0
:10009000A3010008A3010008A3010008A3010008B0
:1000A000A3010008A3010008A3010008A3010008A0
:1000B000A3010008A301000800000000A30100083C
:1000C000A30100080000000000000000A3010008D8
:1000D00000000000A3010008A301000800000000C8
:1000E000A3010008A3010008A301000800F002F822
:1000F00000F03AF80AA090E8000C82448344AAF188
:100100000107DA4501D100F02FF8AFF2090EBAE885
:100110000F0013F0010F18BFFB1A43F0010318473B
:10012000E007000000080000103A24BF78C878C13A
:10013000FAD8520724BF30C830C144BF04680C60ED
:10014000704700000023002400250026103A28BF35
:1001500078C1FBD8520728BF30C148BF0B60704739
:100160001FB51FBD10B510BD00F031F81146FFF7E7
:10017000F7FF00F0B2FB00F04FF803B4FFF7F2FF17
:1001800003BC00F057F800000948804709480047C1
:10019000FEE7FEE7FEE7FEE7FEE7FEE7FEE7FEE737
:1001A000FEE7FEE704480549054A064B7047000094
:1001B00095070008ED000008780000207806002070
:1001C000780200207802002070477047704775461B
:1001D00000F02CF8AE4605006946534620F00700B3
:1001E000854618B020B5FFF7DDFFBDE820404FF091
:1001F00000064FF000074FF000084FF0000B21F011
:100200000701AC46ACE8C009ACE8C009ACE8C009DD
:10021000ACE8C0098D46704710B50446AFF30080C6
:100220002046BDE81040FFF7A8BF00000048704717
:100230001400002001491820ABBEFEE72600020092
:1002400070470EB50121084600F0BEF90020ADF858
:1002500002004FF6FF70ADF804000720ADF8000073
:1002600069464FF0804000F0D7FA0121880700F07E
:10027000C1FA0EBD10B5044602E000F01FFB641E7B
:10028000002CFAD110BD2DE9F041024600250026D0
:10029000002000230024002791F803C00CF00F0574
:1002A00091F803C00CF0100CBCF1000F03D091F8D2
:1002B00002C04CEA050591F800C0BCF1000F31D036
:1002C000146800202BE04FF0010C0CFA00F3B1F899
:1002D00000C00CEA03069E4220D183004FF00F0CB1
:1002E0000CFA03F7BC4305FA03FC4CEA040491F84A
:1002F00003C0BCF1280F06D14FF0010C0CFA00FC32
:10030000C2F814C00AE091F803C0BCF1480F05D14F
:100310004FF0010C0CFA00FCC2F810C0401C082879
:10032000D1D31460B1F800C0BCF1FF0F34DD5468C4
:1003300000202EE000F1080C4FF0010808FA0CF341
:10034000B1F800C00CEA03069E4221D183004FF0B1
:100350000F0C0CFA03F7BC4305FA03FC4CEA040447
:1003600091F803C0BCF1280F05D100F1080C08FA80
:100370000CF8C2F8148091F803C0BCF1480F07D103
:1003800000F1080C4FF0010808FA0CF8C2F81080D0
:10039000401C0828CED35460BDE8F081416170470D
:1003A000016170470AB1016100E0416170470000DE
:1003B00008B50121142000F017F900224FF4306134
:1003C0000F48FFF7EFFF00224FF460410D48FFF7A1
:1003D000E9FF10208DF803004FF47060ADF80000C5
:1003E00001208DF8020069460548FFF74CFF4FF4E5
:1003F0006040ADF8000069460248FFF744FF08BDC1
:1004000000080140001001407CB505460E46144628
:1004100000208DF8050042F2107094FBF0F03030AF
:10042000C0B28DF800004FF47A7094FBF0F00A210E
:1004300090FBF1F201FB12003030C0B28DF80100E8
:10044000642094FBF0F090FBF1F201FB12003030DD
:10045000C0B28DF802000A2094FBF0F090FBF1F29C
:1004600001FB12003030C0B28DF803000A2094FB6B
:10047000F0F100FB11403030C0B28DF8040031467D
:10048000284600F090F8684600F052F87CBD000065
:1004900010B54FF400410748FFF782FF0120FFF736
:1004A000E9FE4FF400410348FFF778FF0120FFF712
:1004B000E1FE10BD0010014010B5FFF779FF0020EC
:1004C00000F042F800224FF400510F48FFF76AFF96
:1004D000032000F039F8FFF7DBFFFFF7D9FFFFF744
:1004E000D7FF022000F030F8FFF7D2FF282000F0FD
:1004F0004DF80C2000F04AF8062000F047F80120E3
:1005000000F044F810BD00000010014010B5044692
:100510004FF400510548FFF743FF204600F036F83E
:100520004FF400510148FFF739FF10BD00100140A2
:1005300010B5044603E02078FFF7E8FF641C20783C
:100540000028F8D110BD000010B5044604F00102E7
:100550004FF480710C48FFF725FFC4F340024FF4BD
:1005600000710948FFF71EFFC4F380024FF4806159
:100570000548FFF717FFC4F3C0024FF400610248BB
:10058000FFF710FF10BD00000008014010B5044641
:100590002011FFF7D9FFFFF77BFF2046FFF7D4FFBD
:1005A000FFF776FF10BD70B504460E461CB906F184
:1005B0008000C5B204E0012C02D106F1C000C5B232
:1005C0002846FFF7E3FF70BD29B1064AD26902430E
:1005D000044BDA6104E0034AD2698243014BDA61D9
:1005E000704700000010024029B1064A9269024398
:1005F000044B9A6104E0034A92698243014B9A6179
:10060000704700000010024010B500F001F810BD66
:100610000CB50020019000903348006840F4803011
:100620003149086000BF3048006800F40030009095
:100630000198401C0190009818B90198B0F5A06F7E
:10064000F1D12948006800F4003010B10120009079
:1006500001E0002000900098012843D12348006861
:1006600040F01000214908600846006820F00300AF
:1006700008600846006840F0020008601A484068B8
:10068000194948600846406848600846406840F498
:10069000806048600846406820F47C104860084646
:1006A000406840F4E81048600846006840F08070F8
:1006B000086000BF0C48006800F000700028F9D006
:1006C0000948406820F00300074948600846406830
:1006D00040F00200486000BF0348406800F00C0092
:1006E0000828F9D10CBD0000001002400020024093
:1006F00010B5002100200022214B5B6803F00C01A3
:1007000021B1042906D0082928D107E01D4B1E4C31
:10071000236027E01B4B1C4C236023E0184B5B68D5
:1007200003F47010164B5B6803F48032022303EB72
:10073000904022B9154B4343134C23600DE0104BFE
:100740005B6803F4003323B1104B43430E4C23602A
:1007500003E00C4B43430C4C236003E0094B0A4C71
:10076000236000BF00BF064B5B68C3F30313084C54
:10077000E15C054B1B68CB40034C236010BD0000BF
:100780000010024000127A000000002000093D0025
:100790000400002010B51348006840F00100114922
:1007A000086008464068104908400E4948600846FD
:1007B00000680E4908400B4908600846006820F4AC
:1007C000802008600846406820F4FE0048604FF42E
:1007D0001F008860FFF718FF4FF0006004490860B1
:1007E00010BD0000001002400000FFF8FFFFF6FE01
:1007F00008ED00E021B1028842F00102028004E02D
:1008000002884FF6FE731A40028070470146888CBA
:100810007047818470470000002202881D4B984277
:100820000ED01D4B98420BD0B0F1804F08D01B4B1F
:10083000984205D01A4B984202D01A4B984204D1E4
:100840004FF68F731A404B881A43174B984207D0C4
:10085000164B984204D04FF6FF431A40CB881A43F8
:1008600002808B8883850B8803850A4B98420BD0C6
:10087000094B984208D00E4B984205D00D4B984238
:1008800002D00D4B984201D10B7A0386012383825B
:1008900070470000002C014000340140000400407B
:1008A00000080040000C0040001000400014004010
:1008B00000400140004401400048014010B50021C3
:1008C0004FF08040FFF7A5FF00BF4FF08040FFF7DB
:1008D0009DFFB0F57A7FF8DB10BDFFF709FFFFF74A
:1008E000B0FCFFF7E9FD002409E0601C84B20A2097
:1008F000FFF7C0FC224600210846FFF785FDF4E71C
:100900002009000800000020140000002801000851
:1009100034090008140000206406000044010008A7
:1009200000A24A04000000000000000001020304CD
:0409300006070809A5
:04000005080000ED02
:00000001FF
