:020000040800F2
:10000000180400200101000819030008E502000897
:10001000150300084901000835060008000000002B
:100020000000000000000000000000004104000883
:10003000B1010008000000001B0300082D050008A6
:100040001B0100081B0100081B0100081B01000820
:100050001B0100081B0100081B0100081B01000810
:100060001B0100081B0100081B0100081B01000800
:100070001B0100081B0100081B0100081B010008F0
:100080001B0100081B0100081B0100081B010008E0
:100090001B0100081B0100081B0100081B010008D0
:1000A0001B0100081B0100081B0100081B010008C0
:1000B0001B0100081B0100081B0100081B010008B0
:1000C0001B0100081B0100081B0100081B010008A0
:1000D0001B0100081B0100081B0100081B01000890
:1000E0001B0100081B0100081B010008DFF80CD0F1
:1000F00000F018F8004800475906000818040020CE
:100100000648804706480047FEE7FEE7FEE7FEE7B1
:10011000FEE7FEE7FEE7FEE7FEE7FEE7D50500089F
:10012000ED000008064C074D06E0E06840F00103D2
:1001300094E8070098471034AC42F6D3FFF7DAFF93
:10014000B0060008D006000800BFFEE708B5012190
:10015000082000F0E3F848208DF803000120ADF8F6
:1001600000006946014800F024F808BD000C014079
:1001700010B500F0E3F8002000F02CF94FF4806097
:1001800000F046F94FF4806000F036F9012000F0ED
:100190002DF900BF212000F0F7F80028FAD0002048
:1001A00000F042F900BF00F00DF90028FBD110BDAE
:1001B00070472DE9F041024600250026002000236B
:1001C0000024002791F803C00CF00F0591F803C03C
:1001D0000CF0100CBCF1000F03D091F802C04CEAF7
:1001E000050591F800C0BCF1000F31D01468002063
:1001F0002BE04FF0010C0CFA00F3B1F800C00CEA50
:1002000003069E4220D183004FF00F0C0CFA03F737
:10021000BC4305FA03FC4CEA040491F803C0BCF1AA
:10022000280F06D14FF0010C0CFA00FCC2F814C0E4
:100230000AE091F803C0BCF1480F05D14FF0010C62
:100240000CFA00FCC2F810C0401C0828D1D314607E
:10025000B1F800C0BCF1FF0F34DD546800202EE07F
:1002600000F1080C4FF0010808FA0CF3B1F800C0D7
:100270000CEA03069E4221D183004FF00F0C0CFACA
:1002800003F7BC4305FA03FC4CEA040491F803C0ED
:10029000BCF1280F05D100F1080C08FA0CF8C2F8DF
:1002A000148091F803C0BCF1480F07D100F1080C8D
:1002B0004FF0010808FA0CF8C2F81080401C08281A
:1002C000CED35460BDE8F0810246002093680B4015
:1002D0000BB1012000E0002070470AB1016100E08D
:1002E0004161704700BFFEE708B50121042000F01E
:1002F00015F810208DF8030003208DF802004FF44C
:100300000050ADF8000069460148FFF752FF08BDF4
:100310000008014000BFFEE77047704729B1064A58
:1003200092690243044B9A6104E0034A9269824352
:10033000014B9A6170470000001002400F480068AE
:1003400040F001000D490860084640680C4908402B
:100350000A494860084600680A4908400749086099
:100360000846006820F4802008600846406820F4B1
:10037000FE0048604FF41F00886070470010024084
:100380000000FFF8FFFFF6FE10B501460022002333
:1003900000204A11012A02D1094C236806E0022AF2
:1003A00002D1074C236A01E0054C636A01F01F0289
:1003B000012494401C400CB1012000E0002010BD3D
:1003C000001002400248406800F00C007047000036
:1003D0000010024001460020034A506820F0F0005F
:1003E0000843506070470000001002400149086057
:1003F000704700000000424201460020034A506856
:1004000020F4E06008435060704700000010024094
:1004100001460020034A506820F4605040EAC100C1
:10042000506070470010024001460020034A5068A7
:1004300020F00300084350607047000000100240A5
:10044000704710B500F002F810BD00000CB5002098
:10045000019000903348006840F4803031490860D2
:1004600000BF3048006800F4003000900198401C44
:100470000190009818B90198B0F5A06FF1D1294802
:10048000006800F4003010B10120009001E000206D
:1004900000900098012843D12348006840F01000E4
:1004A000214908600846006820F0030008600846FB
:1004B000006840F0020008601A4840681949486026
:1004C0000846406848600846406840F480604860DC
:1004D0000846406820F47C1048600846406840F4B4
:1004E000E81048600846006840F08070086000BF6F
:1004F0000C48006800F000700028F9D009484068F6
:1005000020F00300074948600846406840F00200B8
:10051000486000BF0348406800F00C000828F9D18B
:100520000CBD000000100240002002407047000097
:1005300010B5002100200022214B5B6803F00C0164
:1005400021B1042906D0082928D107E01D4B1E4CF3
:10055000236027E01B4B1C4C236023E0184B5B6897
:1005600003F47010164B5B6803F48032022303EB34
:10057000904022B9154B4343134C23600DE0104BC0
:100580005B6803F4003323B1104B43430E4C2360EC
:1005900003E00C4B43430C4C236003E0094B0A4C33
:1005A000236000BF00BF064B5B68C3F30313084C16
:1005B000E15C054B1B68CB40034C236010BD000081
:1005C0000010024000127A000400002000093D00E3
:1005D0000800002010B51348006840F001001149E0
:1005E000086008464068104908400E4948600846BF
:1005F00000680E4908400B4908600846006820F46E
:10060000802008600846406820F4FE0048604FF4EF
:100610001F008860FFF715FF4FF000600449086075
:1006200010BD0000001002400000FFF8FFFFF6FEC2
:1006300008ED00E000BFFEE702E008C8121F08C195
:10064000002AFAD170477047002001E001C1121F53
:10065000002AFBD170470000FFF78AFDFFF768FF13
:10066000FFF742FEFFF772FD1AE001210D48FFF788
:100670002BFE70B900BF01210A48FFF725FE0028B4
:10068000F9D00948007808B9012000E000200649A7
:100690000870054802784FF400510448FFF71DFE2A
:1006A000E3E70000000C01400000002000080140CA
:1006B000D0060008000000201800000038060008DE
:1006C000E8060008180000200004000048060008A2
:1006D0000000000000A24A0400000000000000002A
:0806E0000102030406070809EA
:04000005080000ED02
:00000001FF
