:020000040800F2
:1000000028040020010100087D0300083D030008CA
:100010007903000849010008330A000800000000C5
:100020000000000000000000000000007105000852
:100030008D01000800000000290400085D0600088A
:100040001B0100081B0100081B0100081B01000820
:100050001B0100081B0100081B0100081B01000810
:100060001B0100081B0100081B0100081B01000800
:100070001B0100081B0100081B0100081B010008F0
:100080001B0100081B0100081B0100081B010008E0
:100090001B0100081B0100081B0100081B010008D0
:1000A0001B0100081B0100081B0100081B010008C0
:1000B0001B010008790700081B0100081B0100084C
:1000C0001B0100081B0100081B0100081B010008A0
:1000D0001B0100081B0100081B0100081B01000890
:1000E0001B0100081B0100081B010008DFF80CD0F1
:1000F00000F018F800480047550A000828040020BE
:100100000648804706480047FEE7FEE7FEE7FEE7B1
:10011000FEE7FEE7FEE7FEE7FEE7FEE7050700086D
:10012000ED000008064C074D06E0E06840F00103D2
:1001300094E8070098471034AC42F6D3FFF7DAFF93
:10014000840A0008A40A000800BFFEE710B500F00A
:100150008DF9002000F0D6F94FF4806000F0F0F93E
:100160004FF4806000F0E0F9012000F0D7F900BF03
:10017000212000F0A1F90028FAD0002000F0ECF9CD
:1001800000BF00F0B7F90028FBD110BD70470EB5D5
:100190000121084600F04AF90020ADF802004FF6B0
:1001A000FF70ADF804000720ADF8000069464FF07D
:1001B000804000F0E3FB0121880700F0C4FB0EBD86
:1001C00010B500214FF0804000F0D5FB00BF4FF08C
:1001D000804000F0C4FBB0F57A7FF8DB10BD000072
:1001E00008B50121142000F031F910208DF803002A
:1001F000FF20ADF8000003208DF802006946054895
:1002000000F00CF83C20ADF800006946024800F010
:1002100005F808BD00100140000801402DE9F0413B
:10022000024600250026002000230024002791F824
:1002300003C00CF00F0591F803C00CF0100CBCF1DA
:10024000000F03D091F802C04CEA050591F800C0F8
:10025000BCF1000F31D0146800202BE04FF0010CEE
:100260000CFA00F3B1F800C00CEA03069E4220D15C
:1002700083004FF00F0C0CFA03F7BC4305FA03FCA4
:100280004CEA040491F803C0BCF1280F06D14FF0EA
:10029000010C0CFA00FCC2F814C00AE091F803C08B
:1002A000BCF1480F05D14FF0010C0CFA00FCC2F86C
:1002B00010C0401C0828D1D31460B1F800C0BCF1B4
:1002C000FF0F34DD546800202EE000F1080C4FF0E1
:1002D000010808FA0CF3B1F800C00CEA03069E42CC
:1002E00021D183004FF00F0C0CFA03F7BC4305FA41
:1002F00003FC4CEA040491F803C0BCF1280F05D1BB
:1003000000F1080C08FA0CF8C2F8148091F803C048
:10031000BCF1480F07D100F1080C4FF0010808FAB2
:100320000CF8C2F81080401C0828CED35460BDE8F9
:10033000F0810AB1016100E04161704700BFFEE752
:1003400070B5054600240BE00120A04000EA05023C
:100350000120A04081B20448FFF7EBFF601CC4B24B
:10036000082CF1DB70BD000000100140014908803D
:10037000704700000C00002000BFFEE7704700003F
:1003800070B5002100230F22C47804B3154C2468F3
:1003900004F4E064C4F5E064210AC1F10403CA4036
:1003A000447804FA03F184781440214309010E4C87
:1003B0000678A155047804F01F050124AC400578A7
:1003C0006D11AD0005F1E025C5F8004109E00478A4
:1003D00004F01F050124AC40044D0678761145F861
:1003E000264070BD0CED00E000E400E080E100E09C
:1003F00002490143024A1160704700000000FA05FB
:100400000CED00E008B54FF4E060FFF7F1FF1D20B0
:100410008DF8000000208DF8020001208DF8030007
:100420006846FFF7ADFF08BD7047000029B1064AD6
:10043000D2690243044BDA6104E0034AD269824381
:10044000014BDA61704700000010024029B1064AF2
:1004500092690243044B9A6104E0034A9269824321
:10046000014B9A6170470000001002400F4800687D
:1004700040F001000D490860084640680C490840FA
:100480000A494860084600680A4908400749086068
:100490000846006820F4802008600846406820F480
:1004A000FE0048604FF41F00886070470010024053
:1004B0000000FFF8FFFFF6FE10B501460022002302
:1004C00000204A11012A02D1094C236806E0022AC1
:1004D00002D1074C236A01E0054C636A01F01F0258
:1004E000012494401C400CB1012000E0002010BD0C
:1004F000001002400248406800F00C007047000005
:100500000010024001460020034A506820F0F0002D
:100510000843506070470000001002400149086025
:10052000704700000000424201460020034A506824
:1005300020F4E06008435060704700000010024063
:1005400001460020034A506820F4605040EAC10090
:10055000506070470010024001460020034A506876
:1005600020F0030008435060704700000010024074
:10057000704710B500F002F810BD00000CB5002067
:10058000019000903348006840F4803031490860A1
:1005900000BF3048006800F4003000900198401C13
:1005A0000190009818B90198B0F5A06FF1D12948D1
:1005B000006800F4003010B10120009001E000203C
:1005C00000900098012843D12348006840F01000B3
:1005D000214908600846006820F0030008600846CA
:1005E000006840F0020008601A48406819494860F5
:1005F0000846406848600846406840F480604860AB
:100600000846406820F47C1048600846406840F482
:10061000E81048600846006840F08070086000BF3D
:100620000C48006800F000700028F9D009484068C4
:1006300020F00300074948600846406840F0020087
:10064000486000BF0348406800F00C000828F9D15A
:100650000CBD000000100240002002407047000066
:1006600010B5002100200022214B5B6803F00C0133
:1006700021B1042906D0082928D107E01D4B1E4CC2
:10068000236027E01B4B1C4C236023E0184B5B6866
:1006900003F47010164B5B6803F48032022303EB03
:1006A000904022B9154B4343134C23600DE0104B8F
:1006B0005B6803F4003323B1104B43430E4C2360BB
:1006C00003E00C4B43430C4C236003E0094B0A4C02
:1006D000236000BF00BF064B5B68C3F30313084CE5
:1006E000E15C054B1B68CB40034C236010BD000050
:1006F0000010024000127A001000002000093D00A6
:100700001400002010B51348006840F001001149A2
:10071000086008464068104908400E49486008468D
:1007200000680E4908400B4908600846006820F43C
:10073000802008600846406820F4FE0048604FF4BE
:100740001F008860FFF715FF4FF000600449086044
:1007500010BD0000001002400000FFF8FFFFF6FE91
:1007600008ED00E010B5044602E0FFF729FD641E25
:10077000002CFAD110BD00002DE9F041514800884D
:100780000A2190FBF1F201FB1200C4B24D4800882F
:1007900090FBF1F090FBF1F201FB1200C5B2494869
:1007A0000088642190FBF1F00A2190FBF1F201FB3B
:1007B0001200C6B2434800884FF47A7190FBF1F002
:1007C000C7B241480078401C3F490870084600788D
:1007D000032801DD002008703B48007830B1012873
:1007E0001DD0022834D0032864D14AE00122202100
:1007F0003648FFF79EFD002204213448FFF799FD9B
:10080000002208213148FFF794FD002210212F48D3
:10081000FFF78FFD2E49C85DFFF792FD4AE00122E8
:1008200004212A48FFF785FD002208212748FFF709
:1008300080FD002210212548FFF77BFD00222021AA
:100840002248FFF776FD2249885DFFF779FD31E008
:10085000012208211D48FFF76CFD002220211B48C2
:10086000FFF767FD002204211848FFF762FD002210
:1008700010211648FFF75DFD1549485DFFF760FD43
:1008800018E0012210211148FFF753FD002220211A
:100890000E48FFF74EFD002204210C48FFF749FDEA
:1008A000002208210948FFF744FD0949085DFFF7C8
:1008B00047FD00BF00BF0121064800F041F8BDE838
:1008C000F08100000C0000200A0000200008014018
:1008D00000000020000400400EB50121C802FFF70F
:1008E000B5FD684600F09CF80121134800F02BF894
:1008F00001210220FFF79AFD4F20ADF804003120BE
:10090000ADF800000020ADF80600ADF802008DF84B
:1009100008006946094800F031F86946074800F0C8
:100920002DF801221146054800F01CF8012103486A
:1009300000F009F80EBD0000002C0140000400404A
:10094000CA430282704721B1028842F0010202804C
:1009500004E002884FF6FE731A4002807047014699
:10096000888C70471AB183890B43838102E08389A5
:100970008B43838170478184704700000022028886
:100980001D4B98420ED01D4B98420BD0B0F1804FBA
:1009900008D01B4B984205D01A4B984202D01A4BF4
:1009A000984204D14FF68F731A404B881A43174B65
:1009B000984207D0164B984204D04FF6FF431A4096
:1009C000CB881A4302808B8883850B8803850A4B6A
:1009D00098420BD0094B984208D00E4B984205D054
:1009E0000D4B984202D00D4B984201D10B7A0386F1
:1009F0000123838270470000002C01400034014035
:100A00000004004000080040000C004000100040BE
:100A100000140040004001400044014000480140F3
:100A20004FF6FF71818000210180C18041800172F9
:100A3000704700BFFEE702E008C8121F08C1002A85
:100A4000FAD170477047002001E001C1121F002A4F
:100A5000FBD17047FFF79BFBFFF778FBFFF700FE2A
:100A6000FFF7BEFBFFF7CEFCFFF736FF40F2D244A4
:100A700007E02046FFF77AFC601C84B26420FFF791
:100A800071FEF6E7A40A0008000000202400000020
:100A9000360A0008C80A00082400002004040000E8
:100AA000460A0008C0F9A4B0999282F8809000002C
:100AB0000000000000A24A04000000000000000046
:080AC000010203040607080906
:04000005080000ED02
:00000001FF
